{
  "contractName": "authentification",
  "abi": [
    {
      "anonymous": false,
      "inputs": [
        {
          "indexed": true,
          "internalType": "uint256",
          "name": "date",
          "type": "uint256"
        },
        {
          "indexed": false,
          "internalType": "string",
          "name": "value",
          "type": "string"
        }
      ],
      "name": "retour",
      "type": "event"
    },
    {
      "constant": true,
      "inputs": [],
      "name": "owner",
      "outputs": [
        {
          "internalType": "address",
          "name": "",
          "type": "address"
        }
      ],
      "payable": false,
      "stateMutability": "view",
      "type": "function"
    },
    {
      "constant": false,
      "inputs": [
        {
          "internalType": "address",
          "name": "adr",
          "type": "address"
        },
        {
          "internalType": "string[]",
          "name": "_app",
          "type": "string[]"
        }
      ],
      "name": "ajouterUtilisateur",
      "outputs": [
        {
          "internalType": "string",
          "name": "",
          "type": "string"
        }
      ],
      "payable": false,
      "stateMutability": "nonpayable",
      "type": "function"
    },
    {
      "constant": false,
      "inputs": [
        {
          "internalType": "address",
          "name": "adr",
          "type": "address"
        }
      ],
      "name": "supprimerUtilisateur",
      "outputs": [],
      "payable": false,
      "stateMutability": "nonpayable",
      "type": "function"
    },
    {
      "constant": false,
      "inputs": [
        {
          "internalType": "address",
          "name": "adr",
          "type": "address"
        },
        {
          "internalType": "string[]",
          "name": "_app",
          "type": "string[]"
        }
      ],
      "name": "modifierUtilisateur",
      "outputs": [
        {
          "internalType": "string",
          "name": "",
          "type": "string"
        }
      ],
      "payable": false,
      "stateMutability": "nonpayable",
      "type": "function"
    },
    {
      "constant": true,
      "inputs": [],
      "name": "voirUtilisateurs",
      "outputs": [
        {
          "internalType": "address[]",
          "name": "",
          "type": "address[]"
        }
      ],
      "payable": false,
      "stateMutability": "view",
      "type": "function"
    },
    {
      "constant": true,
      "inputs": [
        {
          "internalType": "address",
          "name": "_address",
          "type": "address"
        }
      ],
      "name": "voirUtilisateur",
      "outputs": [
        {
          "internalType": "string[]",
          "name": "",
          "type": "string[]"
        }
      ],
      "payable": false,
      "stateMutability": "view",
      "type": "function"
    },
    {
      "constant": true,
      "inputs": [
        {
          "internalType": "address",
          "name": "adr",
          "type": "address"
        },
        {
          "internalType": "string",
          "name": "_app",
          "type": "string"
        },
        {
          "internalType": "bytes32",
          "name": "hash",
          "type": "bytes32"
        },
        {
          "internalType": "bytes",
          "name": "signature",
          "type": "bytes"
        }
      ],
      "name": "authentication",
      "outputs": [
        {
          "internalType": "string",
          "name": "",
          "type": "string"
        }
      ],
      "payable": false,
      "stateMutability": "view",
      "type": "function"
    }
  ],
  "bytecode": "0x6080604052336000806101000a81548173ffffffffffffffffffffffffffffffffffffffff021916908373ffffffffffffffffffffffffffffffffffffffff16021790555034801561005057600080fd5b50611c68806100606000396000f3fe608060405234801561001057600080fd5b506004361061007d5760003560e01c80638da5cb5b1161005b5780638da5cb5b146100fe578063c0cc973d1461011c578063f0f320c51461014c578063f79369fa1461017c5761007d565b80630e5ff5fe146100825780634fcf608c1461009e57806384ce0148146100ce575b600080fd5b61009c600480360361009791908101906111ad565b61019a565b005b6100b860048036036100b391908101906111d6565b6103c6565b6040516100c59190611886565b60405180910390f35b6100e860048036036100e3919081019061122a565b610598565b6040516100f59190611886565b60405180910390f35b61010661082e565b60405161011391906117e2565b60405180910390f35b610136600480360361013191908101906111ad565b610853565b604051610143919061181f565b60405180910390f35b610166600480360361016191908101906111d6565b6109c6565b6040516101739190611886565b60405180910390f35b610184610b7e565b60405161019191906117fd565b60405180910390f35b6000809054906101000a900473ffffffffffffffffffffffffffffffffffffffff1673ffffffffffffffffffffffffffffffffffffffff163373ffffffffffffffffffffffffffffffffffffffff16141561038c576101f881610cb5565b1561035057600080600090505b60028054905081101561028e578273ffffffffffffffffffffffffffffffffffffffff166002828154811061023657fe5b9060005260206000200160009054906101000a900473ffffffffffffffffffffffffffffffffffffffff1673ffffffffffffffffffffffffffffffffffffffff161415610281578091505b8080600101915050610205565b506002818154811061029c57fe5b9060005260206000200160006101000a81549073ffffffffffffffffffffffffffffffffffffffff0219169055600160008373ffffffffffffffffffffffffffffffffffffffff1673ffffffffffffffffffffffffffffffffffffffff16815260200190815260200160002060006103149190610e79565b427f4b49773f56e8d86e7ddabd2e09adbd801b07e67fc4318754c13663b4ae5121e3604051610342906118c8565b60405180910390a250610387565b427f4b49773f56e8d86e7ddabd2e09adbd801b07e67fc4318754c13663b4ae5121e360405161037e90611908565b60405180910390a25b6103c3565b427f4b49773f56e8d86e7ddabd2e09adbd801b07e67fc4318754c13663b4ae5121e36040516103ba906118a8565b60405180910390a25b50565b60606000809054906101000a900473ffffffffffffffffffffffffffffffffffffffff1673ffffffffffffffffffffffffffffffffffffffff163373ffffffffffffffffffffffffffffffffffffffff16141561055b5761042683610cb5565b61051f5760028390806001815401808255809150509060018203906000526020600020016000909192909190916101000a81548173ffffffffffffffffffffffffffffffffffffffff021916908373ffffffffffffffffffffffffffffffffffffffff1602179055505081600160008573ffffffffffffffffffffffffffffffffffffffff1673ffffffffffffffffffffffffffffffffffffffff16815260200190815260200160002090805190602001906104e3929190610e9a565b50427f4b49773f56e8d86e7ddabd2e09adbd801b07e67fc4318754c13663b4ae5121e360405161051290611968565b60405180910390a2610556565b427f4b49773f56e8d86e7ddabd2e09adbd801b07e67fc4318754c13663b4ae5121e360405161054d90611948565b60405180910390a25b610592565b427f4b49773f56e8d86e7ddabd2e09adbd801b07e67fc4318754c13663b4ae5121e3604051610589906118e8565b60405180910390a25b92915050565b60606105a385610cb5565b1561080a578473ffffffffffffffffffffffffffffffffffffffff166105c98484610d56565b73ffffffffffffffffffffffffffffffffffffffff1614156107cd57600080905060008090505b600160008873ffffffffffffffffffffffffffffffffffffffff1673ffffffffffffffffffffffffffffffffffffffff1681526020019081526020016000208054905081101561074757610730600160008973ffffffffffffffffffffffffffffffffffffffff1673ffffffffffffffffffffffffffffffffffffffff168152602001908152602001600020828154811061068757fe5b906000526020600020018054600181600116156101000203166002900480601f0160208091040260200160405190810160405280929190818152602001828054600181600116156101000203166002900480156107255780601f106106fa57610100808354040283529160200191610725565b820191906000526020600020905b81548152906001019060200180831161070857829003601f168201915b505050505087610e20565b1561073a57600191505b80806001019150506105f0565b50600181141561078f576040518060400160405280600281526020017f6f6b000000000000000000000000000000000000000000000000000000000000815250915050610826565b6040518060400160405280600d81526020017f6e6f6e2061747472696275c3a900000000000000000000000000000000000000815250915050610826565b6040518060400160405280601581526020017f7369676e6174757265206e6f6e2076616c61626c6500000000000000000000008152509050610826565b604051806060016040528060258152602001611c016025913990505b949350505050565b6000809054906101000a900473ffffffffffffffffffffffffffffffffffffffff1681565b606080604051806060016040528060258152602001611c01602591398160008151811061087c57fe5b602002602001018190525061089083610cb5565b156109bc57600160008473ffffffffffffffffffffffffffffffffffffffff1673ffffffffffffffffffffffffffffffffffffffff168152602001908152602001600020805480602002602001604051908101604052809291908181526020016000905b828210156109b0578382906000526020600020018054600181600116156101000203166002900480601f01602080910402602001604051908101604052809291908181526020018280546001816001161561010002031660029004801561099c5780601f106109715761010080835404028352916020019161099c565b820191906000526020600020905b81548152906001019060200180831161097f57829003601f168201915b5050505050815260200190600101906108f4565b505050509150506109c1565b809150505b919050565b60606000809054906101000a900473ffffffffffffffffffffffffffffffffffffffff1673ffffffffffffffffffffffffffffffffffffffff163373ffffffffffffffffffffffffffffffffffffffff161415610b4157610a2683610cb5565b15610b0557600160008473ffffffffffffffffffffffffffffffffffffffff1673ffffffffffffffffffffffffffffffffffffffff1681526020019081526020016000206000610a769190610e79565b81600160008573ffffffffffffffffffffffffffffffffffffffff1673ffffffffffffffffffffffffffffffffffffffff1681526020019081526020016000209080519060200190610ac9929190610e9a565b50427f4b49773f56e8d86e7ddabd2e09adbd801b07e67fc4318754c13663b4ae5121e3604051610af890611988565b60405180910390a2610b3c565b427f4b49773f56e8d86e7ddabd2e09adbd801b07e67fc4318754c13663b4ae5121e3604051610b3390611928565b60405180910390a25b610b78565b427f4b49773f56e8d86e7ddabd2e09adbd801b07e67fc4318754c13663b4ae5121e3604051610b6f906118e8565b60405180910390a25b92915050565b6060803381600081518110610b8f57fe5b602002602001019073ffffffffffffffffffffffffffffffffffffffff16908173ffffffffffffffffffffffffffffffffffffffff16815250506000809054906101000a900473ffffffffffffffffffffffffffffffffffffffff1673ffffffffffffffffffffffffffffffffffffffff163373ffffffffffffffffffffffffffffffffffffffff161415610cad576002805480602002602001604051908101604052809291908181526020018280548015610ca057602002820191906000526020600020905b8160009054906101000a900473ffffffffffffffffffffffffffffffffffffffff1673ffffffffffffffffffffffffffffffffffffffff1681526020019060010190808311610c56575b5050505050915050610cb2565b809150505b90565b6000806000905060008090505b600280549050811015610d4c578373ffffffffffffffffffffffffffffffffffffffff1660028281548110610cf357fe5b9060005260206000200160009054906101000a900473ffffffffffffffffffffffffffffffffffffffff1673ffffffffffffffffffffffffffffffffffffffff161415610d3f57600191505b8080600101915050610cc2565b5080915050919050565b6000806000806041855114610d715760009350505050610e1a565b6020850151925060408501519150606085015160001a9050601b8160ff161015610d9c57601b810190505b601b8160ff1614158015610db45750601c8160ff1614155b15610dc55760009350505050610e1a565b60018682858560405160008152602001604052604051610de89493929190611841565b6020604051602081039080840390855afa158015610e0a573d6000803e3d6000fd5b5050506020604051035193505050505b92915050565b600081604051602001610e3391906117cb565b6040516020818303038152906040528051906020012083604051602001610e5a91906117cb565b6040516020818303038152906040528051906020012014905092915050565b5080546000825590600052602060002090810190610e979190610efa565b50565b828054828255906000526020600020908101928215610ee9579160200282015b82811115610ee8578251829080519060200190610ed8929190610f26565b5091602001919060010190610eba565b5b509050610ef69190610efa565b5090565b610f2391905b80821115610f1f5760008181610f169190610fa6565b50600101610f00565b5090565b90565b828054600181600116156101000203166002900490600052602060002090601f016020900481019282601f10610f6757805160ff1916838001178555610f95565b82800160010185558215610f95579182015b82811115610f94578251825591602001919060010190610f79565b5b509050610fa29190610fee565b5090565b50805460018160011615610100020316600290046000825580601f10610fcc5750610feb565b601f016020900490600052602060002090810190610fea9190610fee565b5b50565b61101091905b8082111561100c576000816000905550600101610ff4565b5090565b90565b60008135905061102281611bd2565b92915050565b600082601f83011261103957600080fd5b813561104c611047826119d5565b6119a8565b9150818183526020840193506020810190508360005b8381101561109257813586016110788882611105565b845260208401935060208301925050600181019050611062565b5050505092915050565b6000813590506110ab81611be9565b92915050565b600082601f8301126110c257600080fd5b81356110d56110d0826119fd565b6119a8565b915080825260208301602083018583830111156110f157600080fd5b6110fc838284611b7f565b50505092915050565b600082601f83011261111657600080fd5b813561112961112482611a29565b6119a8565b9150808252602083016020830185838301111561114557600080fd5b611150838284611b7f565b50505092915050565b600082601f83011261116a57600080fd5b813561117d61117882611a55565b6119a8565b9150808252602083016020830185838301111561119957600080fd5b6111a4838284611b7f565b50505092915050565b6000602082840312156111bf57600080fd5b60006111cd84828501611013565b91505092915050565b600080604083850312156111e957600080fd5b60006111f785828601611013565b925050602083013567ffffffffffffffff81111561121457600080fd5b61122085828601611028565b9150509250929050565b6000806000806080858703121561124057600080fd5b600061124e87828801611013565b945050602085013567ffffffffffffffff81111561126b57600080fd5b61127787828801611159565b93505060406112888782880161109c565b925050606085013567ffffffffffffffff8111156112a557600080fd5b6112b1878288016110b1565b91505092959194509250565b60006112c983836112e9565b60208301905092915050565b60006112e18383611453565b905092915050565b6112f281611b36565b82525050565b61130181611b36565b82525050565b600061131282611aa1565b61131c8185611ae7565b935061132783611a81565b8060005b8381101561135857815161133f88826112bd565b975061134a83611acd565b92505060018101905061132b565b5085935050505092915050565b600061137082611aac565b61137a8185611af8565b93508360208202850161138c85611a91565b8060005b858110156113c857848403895281516113a985826112d5565b94506113b483611ada565b925060208a01995050600181019050611390565b50829750879550505050505092915050565b6113e381611b48565b82525050565b60006113f482611ac2565b6113fe8185611b1a565b935061140e818560208601611b8e565b61141781611bc1565b840191505092915050565b600061142d82611ac2565b6114378185611b2b565b9350611447818560208601611b8e565b80840191505092915050565b600061145e82611ab7565b6114688185611b09565b9350611478818560208601611b8e565b61148181611bc1565b840191505092915050565b6000611499603383611b1a565b91507f20636574746520666f6e6374696f6e20657374206578636c757369766520612060008301527f6c2761646d696e6973747261746575722e2e2e000000000000000000000000006020830152604082019050919050565b60006114ff602483611b1a565b91507f7574696c69736174657572207375707072696dc3a920617665632073756363c360008301527fa8732e2e000000000000000000000000000000000000000000000000000000006020830152604082019050919050565b6000611565602f83611b1a565b91507f636574746520666f6e6374696f6e20657374206578636c75736976652061206c60008301527f2761646d696e69737472617465757200000000000000000000000000000000006020830152604082019050919050565b60006115cb602683611b1a565b91507f206365747465207574696c697361746575722065737420696e6578697374616e60008301527f742e2e2e2e2e00000000000000000000000000000000000000000000000000006020830152604082019050919050565b6000611631602c83611b1a565b91507f7574696c6973617465757220696e6578697374616e742e2e2e70656e73657a2060008301527f61206c27616a6f757465722000000000000000000000000000000000000000006020830152604082019050919050565b6000611697602c83611b1a565b91507f7574696c69736174657572206578697374616e742e2e2e70656e73657a20612060008301527f6c65206d6f646f666965722000000000000000000000000000000000000000006020830152604082019050919050565b60006116fd602283611b1a565b91507f7574696c6973617465757220616a6f7574c3a920617665632073756363c3a87360008301527f2e2e0000000000000000000000000000000000000000000000000000000000006020830152604082019050919050565b6000611763602383611b1a565b91507f7574696c69736174657572206d6f64696669c3a920617665632073756363c3a860008301527f732e2e00000000000000000000000000000000000000000000000000000000006020830152604082019050919050565b6117c581611b72565b82525050565b60006117d78284611422565b915081905092915050565b60006020820190506117f760008301846112f8565b92915050565b600060208201905081810360008301526118178184611307565b905092915050565b600060208201905081810360008301526118398184611365565b905092915050565b600060808201905061185660008301876113da565b61186360208301866117bc565b61187060408301856113da565b61187d60608301846113da565b95945050505050565b600060208201905081810360008301526118a081846113e9565b905092915050565b600060208201905081810360008301526118c18161148c565b9050919050565b600060208201905081810360008301526118e1816114f2565b9050919050565b6000602082019050818103600083015261190181611558565b9050919050565b60006020820190508181036000830152611921816115be565b9050919050565b6000602082019050818103600083015261194181611624565b9050919050565b600060208201905081810360008301526119618161168a565b9050919050565b60006020820190508181036000830152611981816116f0565b9050919050565b600060208201905081810360008301526119a181611756565b9050919050565b6000604051905081810181811067ffffffffffffffff821117156119cb57600080fd5b8060405250919050565b600067ffffffffffffffff8211156119ec57600080fd5b602082029050602081019050919050565b600067ffffffffffffffff821115611a1457600080fd5b601f19601f8301169050602081019050919050565b600067ffffffffffffffff821115611a4057600080fd5b601f19601f8301169050602081019050919050565b600067ffffffffffffffff821115611a6c57600080fd5b601f19601f8301169050602081019050919050565b6000819050602082019050919050565b6000819050602082019050919050565b600081519050919050565b600081519050919050565b600081519050919050565b600081519050919050565b6000602082019050919050565b6000602082019050919050565b600082825260208201905092915050565b600082825260208201905092915050565b600082825260208201905092915050565b600082825260208201905092915050565b600081905092915050565b6000611b4182611b52565b9050919050565b6000819050919050565b600073ffffffffffffffffffffffffffffffffffffffff82169050919050565b600060ff82169050919050565b82818337600083830152505050565b60005b83811015611bac578082015181840152602081019050611b91565b83811115611bbb576000848401525b50505050565b6000601f19601f8301169050919050565b611bdb81611b36565b8114611be657600080fd5b50565b611bf281611b48565b8114611bfd57600080fd5b5056fe6365747465207574696c697361746575722065737420696e6578697374616e742e2e2e2e2ea365627a7a723158202cadae29768264dbb7ebecb3616d5cd4eb771ceaaa9b361f2adc1a78448abe366c6578706572696d656e74616cf564736f6c63430005100040",
  "source": "pragma experimental ABIEncoderV2;\npragma solidity ^0.5.15;\n\ncontract authentification{\n    \n    //*****************************************************************************partie declarative ******************************************************************************************/\n  \n    //*****le possesseur du contrat*******//\n  \n  address public owner = msg.sender;\n  \n  \n  \n     //******reponse event *****************// \n     \n  event retour(\n\n     uint indexed date,\n     string value);\n  \n  \n  \n  \n     //**** association de chaque adress les application auquelles elle a le droit****//\n     \n  mapping(address => string[]) private droits;\n  \n  \n  \n  \n  \n     //*******liste globale des utilisateurs qui sont ajouts********//\n     \n  address[] private utilisateurs;\n  \n  \n  //********************************************************************************fonctions  administratives***********************************************************************************///\n\n      //**************ajout utilisateur**********************//\n      \n      function ajouterUtilisateur (address adr, string[] memory _app) public returns (string memory){\n          \n        // c'est l'owner qui a le droit a l'ajout des utilisateur\n    \n       if( msg.sender == owner){\n       \n       //address ne doit pas exister\n       \n       if ( !exist(adr)){       \n         \n         \n          //  ajout de l'utilisateur a la liste\n          \n            utilisateurs.push(adr);\n            \n          //creation d'un mapping qui va contenir les applications permises\n          \n             droits[adr] = _app;\n\n             emit retour(now, \"utilisateur ajout avec succs..\");\n\n             } \n            else emit retour(now, \"utilisateur existant...pensez a le modofier \");\n             }\n\n\n            else emit retour(now, \"cette fonction est exclusive a l'administrateur\");\n          \n       }\n\n      //**************supprimer utilisateur**********************//\n\n       function supprimerUtilisateur (address adr) public  {\n          \n        // c'est l'owner qui a le droit a l'ajout des utilisateur\n\n         if( msg.sender == owner){\n       \n       //address ne doit pas exister\n       \n       if ( exist(adr)){ \n              \n          //  la suppressionde l'utilisateur a la liste\n          \n             uint b;\n             \n            for (uint i = 0; i < utilisateurs.length; i++) \n            \n                 {\n                   if ( utilisateurs[i] == adr)\n                   b = i;\n                 } \n                 \n            delete utilisateurs[b];\n\n            delete droits[adr] ;\n\n            emit retour(now, \"utilisateur supprim avec succs..\");\n\n            }\n\n            else emit retour(now,\" cette utilisateur est inexistant.....\" );\n         }\n\n         else emit retour(now,\" cette fonction est exclusive a l'administrateur...\" );        \n       \n       }\n\n       //**************modifier utilisateur**********************//\n        \n       function modifierUtilisateur (address adr, string[] memory _app) public returns (string memory){\n          \n        // c'est l'owner qui a le droit a l'ajout des utilisateur\n    \n       if( msg.sender == owner){\n       \n       //address ne doit pas exister\n       \n       if ( exist(adr)){       \n         \n                     \n          //creation d'un mapping qui va contenir les applications permises\n          delete droits[adr];\n             droits[adr] = _app;\n\n             emit retour(now, \"utilisateur modifi avec succs..\");\n\n             } \n            else emit retour(now, \"utilisateur inexistant...pensez a l'ajouter \");\n             }\n\n\n            else emit retour(now, \"cette fonction est exclusive a l'administrateur\");\n          \n       }\n       \n\n      //**************voir toutes les address**********************//\n      \n\n\n        function voirUtilisateurs () public view returns (address[] memory)  {\n            \n            address[] memory reponses;//[1]  \n\n          reponses[0] =  msg.sender;\n\n         if( msg.sender == owner){\n\n            return utilisateurs;\n\n         }\n         \n         else return  reponses;\n     \n          \n\n         } \n         \n         \n         \n      //**************voir utilisateur**********************//\n         \n         function voirUtilisateur (address _address) public view returns (string[] memory)  {\n\n          string[] memory reponses;//[1]  \n          reponses[0] =  \"cette utilisateur est inexistant.....\"; \n\n          if (exist(_address)){\n          \n              return droits[_address];}\n\n         else \n              \n              return   reponses;\n        \n        }\n\n  //********************************************************************************fonctions  authentification***********************************************************************************///\n  \n  \n         function authentication(address adr,string memory _app, bytes32 hash, bytes memory signature) public  view returns(string memory){\n             \n             \n             //address  doit  exister\n       \n       if (exist(adr)) {\n       \n       if (recover(hash,signature) == adr){\n       \n             uint b= 0;\n            \n             for (uint i = 0; i < droits[adr].length; i++) {\n                 \n                 if ( compareStrings(droits[adr][i], _app) ) b = 1;\n                 \n             }\n             \n             if (b==1) return \"ok\";\n\n             else return \"non attribu\";\n             \n       } else return \"signature non valable\";\n                   \n      }\n      else return \"cette utilisateur est inexistant.....\";\n         \n         }\n\n\n  //********************************************************************************fonctions  auxiliaires***********************************************************************************///\n\n\n\n         //**************verifier existance utilisateur**********************//\n         \n        function exist (address _address)    private view returns (bool){\n            \n         bool b = false;\n         \n         for (uint i = 0; i < utilisateurs.length; i++) {\n             \n            if ( utilisateurs[i] == _address)\n            \n             b = true;\n          }\n          \n             return b;\n\n        }  \n\n\n     function compareStrings(string memory a, string memory b) private  pure returns (bool) {\n    return (keccak256(abi.encodePacked((a))) == keccak256(abi.encodePacked((b))));\n           }\n           \n           \n           \n     \n        function recover(bytes32 hash, bytes memory signature) private  pure returns (address){\n            \n          bytes32 r;\n          bytes32 s;\n          uint8 v;\n\n          // Check the signature length\n          if (signature.length != 65) {\n             return (address(0));\n            }\n\n         // Divide the signature in r, s and v variables\n         // ecrecover takes the signature parameters, and the only way to get them\n         // currently is to use assembly.\n         // solium-disable-next-line security/no-inline-assembly\n         assembly {\n         r := mload(add(signature, 0x20))\n         s := mload(add(signature, 0x40))\n         v := byte(0, mload(add(signature, 0x60)))\n         }\n\n          // Version of signature should be 27 or 28, but 0 and 1 are also possible versions\n         if (v < 27) {\n          v += 27;\n          }\n\n         // If the version is correct return the signer address\n         if (v != 27 && v != 28) {\n          return (address(0));\n           } else {\n         // solium-disable-next-line arg-overflow\n        return ecrecover(hash, v, r, s);\n    }\n  }\n\n}\n",
  "sourcePath": "/home/abdettaib/Musique/administrateur/contracts/authentification.sol",
  "compiler": {
    "name": "solc",
    "version": "0.5.16+commit.9c3226ce.Emscripten.clang"
  },
  "schemaVersion": "3.4.0",
  "updatedAt": "2021-06-30T12:52:56.921Z",
  "networkType": "ethereum",
  "devdoc": {
    "methods": {}
  },
  "userdoc": {
    "methods": {}
  }
}